{
  "contractName": "SimpleBet",
  "abi": [
    {
      "constant": true,
      "inputs": [],
      "name": "maxBet",
      "outputs": [
        {
          "name": "",
          "type": "uint256"
        }
      ],
      "payable": false,
      "stateMutability": "view",
      "type": "function"
    },
    {
      "constant": false,
      "inputs": [],
      "name": "unpause",
      "outputs": [],
      "payable": false,
      "stateMutability": "nonpayable",
      "type": "function"
    },
    {
      "constant": true,
      "inputs": [
        {
          "name": "account",
          "type": "address"
        }
      ],
      "name": "isPauser",
      "outputs": [
        {
          "name": "",
          "type": "bool"
        }
      ],
      "payable": false,
      "stateMutability": "view",
      "type": "function"
    },
    {
      "constant": true,
      "inputs": [],
      "name": "paused",
      "outputs": [
        {
          "name": "",
          "type": "bool"
        }
      ],
      "payable": false,
      "stateMutability": "view",
      "type": "function"
    },
    {
      "constant": false,
      "inputs": [],
      "name": "renouncePauser",
      "outputs": [],
      "payable": false,
      "stateMutability": "nonpayable",
      "type": "function"
    },
    {
      "constant": false,
      "inputs": [],
      "name": "renounceOwnership",
      "outputs": [],
      "payable": false,
      "stateMutability": "nonpayable",
      "type": "function"
    },
    {
      "constant": false,
      "inputs": [
        {
          "name": "account",
          "type": "address"
        }
      ],
      "name": "addPauser",
      "outputs": [],
      "payable": false,
      "stateMutability": "nonpayable",
      "type": "function"
    },
    {
      "constant": false,
      "inputs": [],
      "name": "pause",
      "outputs": [],
      "payable": false,
      "stateMutability": "nonpayable",
      "type": "function"
    },
    {
      "constant": true,
      "inputs": [],
      "name": "owner",
      "outputs": [
        {
          "name": "",
          "type": "address"
        }
      ],
      "payable": false,
      "stateMutability": "view",
      "type": "function"
    },
    {
      "constant": true,
      "inputs": [],
      "name": "isOwner",
      "outputs": [
        {
          "name": "",
          "type": "bool"
        }
      ],
      "payable": false,
      "stateMutability": "view",
      "type": "function"
    },
    {
      "constant": true,
      "inputs": [],
      "name": "minBet",
      "outputs": [
        {
          "name": "",
          "type": "uint256"
        }
      ],
      "payable": false,
      "stateMutability": "view",
      "type": "function"
    },
    {
      "constant": true,
      "inputs": [],
      "name": "blockExpiration",
      "outputs": [
        {
          "name": "",
          "type": "uint8"
        }
      ],
      "payable": false,
      "stateMutability": "view",
      "type": "function"
    },
    {
      "constant": true,
      "inputs": [],
      "name": "blockDelay",
      "outputs": [
        {
          "name": "",
          "type": "uint8"
        }
      ],
      "payable": false,
      "stateMutability": "view",
      "type": "function"
    },
    {
      "constant": false,
      "inputs": [
        {
          "name": "newOwner",
          "type": "address"
        }
      ],
      "name": "transferOwnership",
      "outputs": [],
      "payable": false,
      "stateMutability": "nonpayable",
      "type": "function"
    },
    {
      "inputs": [],
      "payable": false,
      "stateMutability": "nonpayable",
      "type": "constructor"
    },
    {
      "payable": true,
      "stateMutability": "payable",
      "type": "fallback"
    },
    {
      "anonymous": false,
      "inputs": [
        {
          "indexed": false,
          "name": "_newBankroll",
          "type": "uint256"
        }
      ],
      "name": "bankrollUpdated",
      "type": "event"
    },
    {
      "anonymous": false,
      "inputs": [
        {
          "indexed": false,
          "name": "account",
          "type": "address"
        }
      ],
      "name": "Paused",
      "type": "event"
    },
    {
      "anonymous": false,
      "inputs": [
        {
          "indexed": false,
          "name": "account",
          "type": "address"
        }
      ],
      "name": "Unpaused",
      "type": "event"
    },
    {
      "anonymous": false,
      "inputs": [
        {
          "indexed": true,
          "name": "account",
          "type": "address"
        }
      ],
      "name": "PauserAdded",
      "type": "event"
    },
    {
      "anonymous": false,
      "inputs": [
        {
          "indexed": true,
          "name": "account",
          "type": "address"
        }
      ],
      "name": "PauserRemoved",
      "type": "event"
    },
    {
      "anonymous": false,
      "inputs": [
        {
          "indexed": true,
          "name": "previousOwner",
          "type": "address"
        },
        {
          "indexed": true,
          "name": "newOwner",
          "type": "address"
        }
      ],
      "name": "OwnershipTransferred",
      "type": "event"
    },
    {
      "constant": false,
      "inputs": [],
      "name": "addBankroll",
      "outputs": [],
      "payable": true,
      "stateMutability": "payable",
      "type": "function"
    },
    {
      "constant": false,
      "inputs": [],
      "name": "disableBetting_only_Owner",
      "outputs": [],
      "payable": false,
      "stateMutability": "nonpayable",
      "type": "function"
    },
    {
      "constant": false,
      "inputs": [],
      "name": "enableBetting_only_Owner",
      "outputs": [],
      "payable": false,
      "stateMutability": "nonpayable",
      "type": "function"
    },
    {
      "constant": false,
      "inputs": [
        {
          "name": "input_",
          "type": "bool"
        }
      ],
      "name": "placeBet",
      "outputs": [],
      "payable": true,
      "stateMutability": "payable",
      "type": "function"
    }
  ],
  "bytecode": "0x608060405234801561001057600080fd5b50336000806101000a81548173ffffffffffffffffffffffffffffffffffffffff021916908373ffffffffffffffffffffffffffffffffffffffff1602179055506000809054906101000a900473ffffffffffffffffffffffffffffffffffffffff1673ffffffffffffffffffffffffffffffffffffffff16600073ffffffffffffffffffffffffffffffffffffffff167f8be0079c531659141344cd1fd0a4f28419497f9722a3daafe3b4186f6b6457e060405160405180910390a36100e533610159640100000000026401000000009004565b6000600260006101000a81548160ff0219169083151502179055506000600260016101000a81548160ff021916908360ff16021790555060646002806101000a81548160ff021916908360ff160217905550662386f26fc10000600481905550670de0b6b3a7640000600381905550610313565b61017a8160016101c064010000000002610f31179091906401000000009004565b8073ffffffffffffffffffffffffffffffffffffffff167f6719d08c1888103bea251a4ed56406bd0c3e69723c8a1686e017e7bbe159b6f860405160405180910390a250565b600073ffffffffffffffffffffffffffffffffffffffff168173ffffffffffffffffffffffffffffffffffffffff16141515156101fc57600080fd5b610215828261027f640100000000026401000000009004565b15151561022157600080fd5b60018260000160008373ffffffffffffffffffffffffffffffffffffffff1673ffffffffffffffffffffffffffffffffffffffff16815260200190815260200160002060006101000a81548160ff0219169083151502179055505050565b60008073ffffffffffffffffffffffffffffffffffffffff168273ffffffffffffffffffffffffffffffffffffffff16141515156102bc57600080fd5b8260000160008373ffffffffffffffffffffffffffffffffffffffff1673ffffffffffffffffffffffffffffffffffffffff16815260200190815260200160002060009054906101000a900460ff16905092915050565b61100d806103226000396000f3fe6080604052600436106100fc576000357c0100000000000000000000000000000000000000000000000000000000900463ffffffff168063096a37781461011c578063148105ab1461014c5780632c233cf1146101565780632e5b21681461016d5780633f4ba83a1461019857806346fbf68e146101af5780635c975abb146102185780636ef8d66d14610247578063715018a61461025e57806382dc1ec4146102755780638456cb59146102c65780638da5cb5b146102dd5780638f32d59b146103345780639619367d14610363578063d4595aaa1461038e578063d98f6088146103bf578063ec15740c146103f0578063f2fde38b14610407575b6001600560000160166101000a81548160ff021916908315150217905550005b61014a6004803603602081101561013257600080fd5b81019080803515159060200190929190505050610458565b005b610154610716565b005b34801561016257600080fd5b5061016b610797565b005b34801561017957600080fd5b506101826107ec565b6040518082815260200191505060405180910390f35b3480156101a457600080fd5b506101ad6107f2565b005b3480156101bb57600080fd5b506101fe600480360360208110156101d257600080fd5b81019080803573ffffffffffffffffffffffffffffffffffffffff1690602001909291905050506108a1565b604051808215151515815260200191505060405180910390f35b34801561022457600080fd5b5061022d6108be565b604051808215151515815260200191505060405180910390f35b34801561025357600080fd5b5061025c6108d5565b005b34801561026a57600080fd5b506102736108e0565b005b34801561028157600080fd5b506102c46004803603602081101561029857600080fd5b81019080803573ffffffffffffffffffffffffffffffffffffffff1690602001909291905050506109b2565b005b3480156102d257600080fd5b506102db6109d2565b005b3480156102e957600080fd5b506102f2610a82565b604051808273ffffffffffffffffffffffffffffffffffffffff1673ffffffffffffffffffffffffffffffffffffffff16815260200191505060405180910390f35b34801561034057600080fd5b50610349610aab565b604051808215151515815260200191505060405180910390f35b34801561036f57600080fd5b50610378610b02565b6040518082815260200191505060405180910390f35b34801561039a57600080fd5b506103a3610b08565b604051808260ff1660ff16815260200191505060405180910390f35b3480156103cb57600080fd5b506103d4610b1a565b604051808260ff1660ff16815260200191505060405180910390f35b3480156103fc57600080fd5b50610405610b2d565b005b34801561041357600080fd5b506104566004803603602081101561042a57600080fd5b81019080803573ffffffffffffffffffffffffffffffffffffffff169060200190929190505050610b82565b005b60018081111561046457fe5b600a60019054906101000a900460ff16600181111561047f57fe5b141515156104f5576040517f08c379a00000000000000000000000000000000000000000000000000000000081526004018080602001828103825260118152602001807f42657474696e672064697361626c65642e00000000000000000000000000000081525060200191505060405180910390fd5b600260009054906101000a900460ff1615151561051157600080fd5b6000600181111561051e57fe5b600a60009054906101000a900460ff16600181111561053957fe5b14156105495761054833610ba1565b5b6001600a60006101000a81548160ff0219169083600181111561056857fe5b02179055506000610577610ba4565b9050610100604051908101604052803373ffffffffffffffffffffffffffffffffffffffff16815260200160001515815260200160001515815260200183151581526020018281526020014381526020016000815260200160001515815250600560008201518160000160006101000a81548173ffffffffffffffffffffffffffffffffffffffff021916908373ffffffffffffffffffffffffffffffffffffffff16021790555060208201518160000160146101000a81548160ff02191690831515021790555060408201518160000160156101000a81548160ff02191690831515021790555060608201518160000160166101000a81548160ff0219169083151502179055506080820151816001015560a0820151816002015560c0820151816003015560e08201518160040160006101000a81548160ff02191690831515021790555090505034811015610712573373ffffffffffffffffffffffffffffffffffffffff166108fc8234039081150290604051600060405180830381858888f19350505050158015610710573d6000803e3d6000fd5b505b5050565b61071e610aab565b151561072957600080fd5b600260009054906101000a900460ff1615151561074557600080fd5b7fd144f5a893f984503944e48227fe010e37b0adaf7fa746d9023e3630f837a8d73073ffffffffffffffffffffffffffffffffffffffff163134016040518082815260200191505060405180910390a1565b61079f610aab565b15156107aa57600080fd5b600260009054906101000a900460ff161515156107c657600080fd5b6001600a60016101000a81548160ff021916908360018111156107e557fe5b0217905550565b60035481565b6107fb336108a1565b151561080657600080fd5b600260009054906101000a900460ff16151561082157600080fd5b6000600260006101000a81548160ff0219169083151502179055507f5db9ee0a495bf2e6ff9c91a7834c1ba4fdd244a5e8aa4e537bd38aeae4b073aa33604051808273ffffffffffffffffffffffffffffffffffffffff1673ffffffffffffffffffffffffffffffffffffffff16815260200191505060405180910390a1565b60006108b7826001610c4090919063ffffffff16565b9050919050565b6000600260009054906101000a900460ff16905090565b6108de33610cd4565b565b6108e8610aab565b15156108f357600080fd5b600073ffffffffffffffffffffffffffffffffffffffff166000809054906101000a900473ffffffffffffffffffffffffffffffffffffffff1673ffffffffffffffffffffffffffffffffffffffff167f8be0079c531659141344cd1fd0a4f28419497f9722a3daafe3b4186f6b6457e060405160405180910390a360008060006101000a81548173ffffffffffffffffffffffffffffffffffffffff021916908373ffffffffffffffffffffffffffffffffffffffff160217905550565b6109bb336108a1565b15156109c657600080fd5b6109cf81610d2e565b50565b6109db336108a1565b15156109e657600080fd5b600260009054906101000a900460ff16151515610a0257600080fd5b6001600260006101000a81548160ff0219169083151502179055507f62e78cea01bee320cd4e420270b5ea74000d11b0c9f74754ebdbfc544b05a25833604051808273ffffffffffffffffffffffffffffffffffffffff1673ffffffffffffffffffffffffffffffffffffffff16815260200191505060405180910390a1565b60008060009054906101000a900473ffffffffffffffffffffffffffffffffffffffff16905090565b60008060009054906101000a900473ffffffffffffffffffffffffffffffffffffffff1673ffffffffffffffffffffffffffffffffffffffff163373ffffffffffffffffffffffffffffffffffffffff1614905090565b60045481565b6002809054906101000a900460ff1681565b600260019054906101000a900460ff1681565b610b35610aab565b1515610b4057600080fd5b600260009054906101000a900460ff16151515610b5c57600080fd5b6000600a60016101000a81548160ff02191690836001811115610b7b57fe5b0217905550565b610b8a610aab565b1515610b9557600080fd5b610b9e81610d88565b50565b50565b6000806004543410151515610c21576040517f08c379a000000000000000000000000000000000000000000000000000000000815260040180806020018281038252600e8152602001807f42657420746f6f20736d616c6c2e00000000000000000000000000000000000081525060200191505060405180910390fd5b600354341115610c35576003549050610c39565b3490505b8091505090565b60008073ffffffffffffffffffffffffffffffffffffffff168273ffffffffffffffffffffffffffffffffffffffff1614151515610c7d57600080fd5b8260000160008373ffffffffffffffffffffffffffffffffffffffff1673ffffffffffffffffffffffffffffffffffffffff16815260200190815260200160002060009054906101000a900460ff16905092915050565b610ce8816001610e8290919063ffffffff16565b8073ffffffffffffffffffffffffffffffffffffffff167fcd265ebaf09df2871cc7bd4133404a235ba12eff2041bb89d9c714a2621c7c7e60405160405180910390a250565b610d42816001610f3190919063ffffffff16565b8073ffffffffffffffffffffffffffffffffffffffff167f6719d08c1888103bea251a4ed56406bd0c3e69723c8a1686e017e7bbe159b6f860405160405180910390a250565b600073ffffffffffffffffffffffffffffffffffffffff168173ffffffffffffffffffffffffffffffffffffffff1614151515610dc457600080fd5b8073ffffffffffffffffffffffffffffffffffffffff166000809054906101000a900473ffffffffffffffffffffffffffffffffffffffff1673ffffffffffffffffffffffffffffffffffffffff167f8be0079c531659141344cd1fd0a4f28419497f9722a3daafe3b4186f6b6457e060405160405180910390a3806000806101000a81548173ffffffffffffffffffffffffffffffffffffffff021916908373ffffffffffffffffffffffffffffffffffffffff16021790555050565b600073ffffffffffffffffffffffffffffffffffffffff168173ffffffffffffffffffffffffffffffffffffffff1614151515610ebe57600080fd5b610ec88282610c40565b1515610ed357600080fd5b60008260000160008373ffffffffffffffffffffffffffffffffffffffff1673ffffffffffffffffffffffffffffffffffffffff16815260200190815260200160002060006101000a81548160ff0219169083151502179055505050565b600073ffffffffffffffffffffffffffffffffffffffff168173ffffffffffffffffffffffffffffffffffffffff1614151515610f6d57600080fd5b610f778282610c40565b151515610f8357600080fd5b60018260000160008373ffffffffffffffffffffffffffffffffffffffff1673ffffffffffffffffffffffffffffffffffffffff16815260200190815260200160002060006101000a81548160ff021916908315150217905550505056fea165627a7a72305820f7272d6e605802ef9f73c40d565949875686c389a91d24deb2b4eb668e88d75f0029",
  "source": "pragma solidity ^0.5.0;\n\nimport \"openzeppelin-solidity/contracts/ownership/Ownable.sol\";\nimport \"openzeppelin-solidity/contracts/lifecycle/Pausable.sol\";\n\n/// @author Colin McCrae, colin.mccrae@gmail.com\n/// @title final-project-colinmccrae: SimpleBet\n/// @dev Contract SimpleBet will inherit the contracts Ownable and Pausable from the OpenZeppelin libarary (/node_modules/openzeppelin-solidity/contracts)\n/// @dev Pausable is a circuit breaker which blocks all contract functions expect withdrawl by the owner \ncontract SimpleBet is Ownable, Pausable {\n\n    // Game and global variables\n    // blockDelay How many blocks to wait to resolve RNG and allow payout\n    // blockExpiration How many blocks until bet expires\n    // maxBet Minimum bet size\n    // minBet Maximum bet size\n    uint8 public blockDelay;\n    uint8 public blockExpiration;\n    uint256 public maxBet;\n    uint256 public minBet;\n\n    // Record bets in a struct\n    // Bet.player Address of player\n    // Bet.resolved Has the bet been resolved yet?\n    // Bet.win Is the bet a winning bet?\n    // Bet.input User's bet (heads or tails)\n    // Bet.betSize User's bet size\n    // Bet.blockBet The block number the bet is placed \n    // Bet.blockResolved The block number the bet is resolved\n    // Bet.betResult The result of the random number generation\n    struct Bet {\n        address player;\n        bool resolved;\n        bool win;\n        bool input;\n        uint256 betSize;\n        uint256 blockBet;\n        uint256 blockResolved;\n        bool betResult;\n    }\n    Bet private bet;\n    \n    // Tracks the current bet status\n    enum Status {waitingForBet, waitingForResolve}\n    // playerStatus.waitingForBet Contract is ready to accept a bet\n    // playerStatus.waitingForResolve Contract is ready to resolve a bet\n    Status private playerStatus;\n\n    event bankrollUpdated(uint _newBankroll);\n\n    /// @dev Constructor with contract deployment inital settings \n    // blockDelay How many blocks to wait to resolve RNG and allow payout\n    // blockExpiration How many blocks until bet expires\n    // minBet Minimum bet size (1 Ether = 1,000 Finney)\n    // maxBet Maximum bet size (1 Ether = 1,000 Finney)\n    constructor() public {\n        blockDelay = 0;\n        blockExpiration = 100;\n        minBet = 10 finney;\n        maxBet = 1000 finney;\n    }\n\n    /// @dev The owner can add more bankroll to the contract when the contract is not paused (even if betting is disabled)\n    function addBankroll() public payable \n        onlyOwner\n        whenNotPaused {\n        emit bankrollUpdated(msg.value + address(this).balance);   \n    }\n\n    // An emum which keeps track of whether betting is enabled or disabled\n    enum States{active, inactive}\n    // contract_state.active Betting enabled\n    // contract_state.inactive Betting disabled\n    States private contract_state;\n    \n    /// @dev Owner is able to disable betting when the contract is not paused\n    function disableBetting_only_Owner() public\n        onlyOwner \n        whenNotPaused {\n        contract_state = States.inactive;\n    }\n\n    /// @dev Owner is able to enable betting when the contract is not paused\n    function enableBetting_only_Owner() public\n        onlyOwner\n        whenNotPaused {\n        contract_state = States.active;\n    }\n\n    /// @dev A modifier that requires the betting to be enabled\n    modifier onlyActive() {\n        require (contract_state!=States.inactive, \"Betting disabled.\");\n        _;\n    }\n\n    /// @dev The fallback function (if player doesn't specify heads or tails) makes the default bet true (heads)\n    function () external payable\n        {\n        bet.input = true;\n    } \n\n    /// @dev Function ensures the bet size is in the valid range\n    /// @return playerBetValue The accepted bet value   \n    function checkBetValue() private returns(uint256) {\n        uint256 playerBetValue;\n        require (msg.value >= minBet, \"Bet too small.\");\n\n        if (msg.value > maxBet){\n            playerBetValue = maxBet;\n        }\n        else {\n            playerBetValue = msg.value;\n        }\n        return playerBetValue;\n    }\n\n    /// @dev Fuction records the bet details. To be public as it will be called by the user.\n    /// @dev User sends Ether as the bet. This function only works when betting is enabled, and contract not paused.  \n    /// @param input_ The user's bet (true = heads, false = tails) \n    function placeBet(bool input_) public \n        payable\n        onlyActive\n        whenNotPaused {\n        if (playerStatus == Status.waitingForBet) {\n            resolveBet(msg.sender);\n        }\n        /// @dev Update contract status from waiting for bet to waiting for resolve.\n        playerStatus = Status.waitingForResolve;\n\n        /// @dev Ensure bet size is in range\n        uint256 betValue = checkBetValue();\n        \n        /// @param Bet(player address, resolved, win, input, betSize, blockBet, blockResoved, betResult)\n        bet = Bet(msg.sender, false, false, input_, betValue, block.number, 0, false);\n\n        /// @dev Refund excess bet to user (do this at the very last step of the function to prevent a re-entrancy attack)\n        if (betValue < msg.value) {\n            msg.sender.transfer(msg.value - betValue);\n        }\n    }\n\n    /// @dev Fuction resolves the bet.\n    /// @param playerBet Address of player who has made the bet\n    function resolveBet(address playerBet) private {\n\n    }\n\n\n    // function withdraw() public {\n    //     uint amount = pendingWithdrawals[msg.sender];\n    //     // Remember to zero the pending refund before\n    //     // sending to prevent re-entrancy attacks\n    //     pendingWithdrawals[msg.sender] = 0;\n    //     msg.sender.transfer(amount);\n//    }\n\n\n\n}\n",
  "sourcePath": "/home/colin/localdev/consensys/final-project-colinmccrae/contracts/SimpleBet.sol",
  "compiler": {
    "name": "solc",
    "version": "0.5.0+commit.1d4f565a.Emscripten.clang"
  },
  "schemaVersion": "3.0.1",
  "updatedAt": "2019-01-25T10:52:40.317Z",
  "devdoc": {
    "author": "Colin McCrae, colin.mccrae@gmail.com",
    "details": "Contract SimpleBet will inherit the contracts Ownable and Pausable from the OpenZeppelin libarary (/node_modules/openzeppelin-solidity/contracts)Pausable is a circuit breaker which blocks all contract functions expect withdrawl by the owner ",
    "methods": {
      "addBankroll()": {
        "details": "The owner can add more bankroll to the contract when the contract is not paused (even if betting is disabled)"
      },
      "constructor": {
        "details": "Constructor with contract deployment inital settings "
      },
      "disableBetting_only_Owner()": {
        "details": "Owner is able to disable betting when the contract is not paused"
      },
      "enableBetting_only_Owner()": {
        "details": "Owner is able to enable betting when the contract is not paused"
      },
      "isOwner()": {
        "return": "true if `msg.sender` is the owner of the contract."
      },
      "owner()": {
        "return": "the address of the owner."
      },
      "pause()": {
        "details": "called by the owner to pause, triggers stopped state"
      },
      "paused()": {
        "return": "true if the contract is paused, false otherwise."
      },
      "placeBet(bool)": {
        "details": "Fuction records the bet details. To be public as it will be called by the user.User sends Ether as the bet. This function only works when betting is enabled, and contract not paused.  ",
        "params": {
          "input_": "The user's bet (true = heads, false = tails) "
        }
      },
      "renounceOwnership()": {
        "details": "Allows the current owner to relinquish control of the contract."
      },
      "transferOwnership(address)": {
        "details": "Allows the current owner to transfer control of the contract to a newOwner.",
        "params": {
          "newOwner": "The address to transfer ownership to."
        }
      },
      "unpause()": {
        "details": "called by the owner to unpause, returns to normal state"
      }
    },
    "title": "final-project-colinmccrae: SimpleBet"
  },
  "userdoc": {
    "methods": {
      "renounceOwnership()": {
        "notice": "Renouncing to ownership will leave the contract without an owner. It will not be possible to call the functions with the `onlyOwner` modifier anymore."
      }
    }
  }
}