{
  "contractName": "SimpleBet",
  "abi": [
    {
      "constant": true,
      "inputs": [],
      "name": "bet",
      "outputs": [
        {
          "name": "player",
          "type": "address"
        },
        {
          "name": "resolved",
          "type": "bool"
        },
        {
          "name": "win",
          "type": "bool"
        },
        {
          "name": "input",
          "type": "bool"
        },
        {
          "name": "betSize",
          "type": "uint256"
        },
        {
          "name": "blockBet",
          "type": "uint256"
        },
        {
          "name": "blockResolved",
          "type": "uint256"
        },
        {
          "name": "betResult",
          "type": "bool"
        }
      ],
      "payable": false,
      "stateMutability": "view",
      "type": "function"
    },
    {
      "constant": true,
      "inputs": [],
      "name": "maxBet",
      "outputs": [
        {
          "name": "",
          "type": "uint256"
        }
      ],
      "payable": false,
      "stateMutability": "view",
      "type": "function"
    },
    {
      "constant": false,
      "inputs": [],
      "name": "unpause",
      "outputs": [],
      "payable": false,
      "stateMutability": "nonpayable",
      "type": "function"
    },
    {
      "constant": true,
      "inputs": [
        {
          "name": "account",
          "type": "address"
        }
      ],
      "name": "isPauser",
      "outputs": [
        {
          "name": "",
          "type": "bool"
        }
      ],
      "payable": false,
      "stateMutability": "view",
      "type": "function"
    },
    {
      "constant": true,
      "inputs": [],
      "name": "paused",
      "outputs": [
        {
          "name": "",
          "type": "bool"
        }
      ],
      "payable": false,
      "stateMutability": "view",
      "type": "function"
    },
    {
      "constant": false,
      "inputs": [],
      "name": "renouncePauser",
      "outputs": [],
      "payable": false,
      "stateMutability": "nonpayable",
      "type": "function"
    },
    {
      "constant": false,
      "inputs": [],
      "name": "renounceOwnership",
      "outputs": [],
      "payable": false,
      "stateMutability": "nonpayable",
      "type": "function"
    },
    {
      "constant": false,
      "inputs": [
        {
          "name": "account",
          "type": "address"
        }
      ],
      "name": "addPauser",
      "outputs": [],
      "payable": false,
      "stateMutability": "nonpayable",
      "type": "function"
    },
    {
      "constant": false,
      "inputs": [],
      "name": "pause",
      "outputs": [],
      "payable": false,
      "stateMutability": "nonpayable",
      "type": "function"
    },
    {
      "constant": true,
      "inputs": [],
      "name": "owner",
      "outputs": [
        {
          "name": "",
          "type": "address"
        }
      ],
      "payable": false,
      "stateMutability": "view",
      "type": "function"
    },
    {
      "constant": true,
      "inputs": [],
      "name": "isOwner",
      "outputs": [
        {
          "name": "",
          "type": "bool"
        }
      ],
      "payable": false,
      "stateMutability": "view",
      "type": "function"
    },
    {
      "constant": true,
      "inputs": [],
      "name": "minBet",
      "outputs": [
        {
          "name": "",
          "type": "uint256"
        }
      ],
      "payable": false,
      "stateMutability": "view",
      "type": "function"
    },
    {
      "constant": false,
      "inputs": [
        {
          "name": "newOwner",
          "type": "address"
        }
      ],
      "name": "transferOwnership",
      "outputs": [],
      "payable": false,
      "stateMutability": "nonpayable",
      "type": "function"
    },
    {
      "inputs": [],
      "payable": false,
      "stateMutability": "nonpayable",
      "type": "constructor"
    },
    {
      "payable": true,
      "stateMutability": "payable",
      "type": "fallback"
    },
    {
      "anonymous": false,
      "inputs": [
        {
          "indexed": false,
          "name": "_newBankroll",
          "type": "uint256"
        }
      ],
      "name": "bankrollUpdated",
      "type": "event"
    },
    {
      "anonymous": false,
      "inputs": [
        {
          "indexed": false,
          "name": "account",
          "type": "address"
        }
      ],
      "name": "Paused",
      "type": "event"
    },
    {
      "anonymous": false,
      "inputs": [
        {
          "indexed": false,
          "name": "account",
          "type": "address"
        }
      ],
      "name": "Unpaused",
      "type": "event"
    },
    {
      "anonymous": false,
      "inputs": [
        {
          "indexed": true,
          "name": "account",
          "type": "address"
        }
      ],
      "name": "PauserAdded",
      "type": "event"
    },
    {
      "anonymous": false,
      "inputs": [
        {
          "indexed": true,
          "name": "account",
          "type": "address"
        }
      ],
      "name": "PauserRemoved",
      "type": "event"
    },
    {
      "anonymous": false,
      "inputs": [
        {
          "indexed": true,
          "name": "previousOwner",
          "type": "address"
        },
        {
          "indexed": true,
          "name": "newOwner",
          "type": "address"
        }
      ],
      "name": "OwnershipTransferred",
      "type": "event"
    },
    {
      "constant": false,
      "inputs": [],
      "name": "addBankroll",
      "outputs": [],
      "payable": true,
      "stateMutability": "payable",
      "type": "function"
    },
    {
      "constant": false,
      "inputs": [
        {
          "name": "amount",
          "type": "uint256"
        }
      ],
      "name": "withdrawBankroll",
      "outputs": [],
      "payable": false,
      "stateMutability": "nonpayable",
      "type": "function"
    },
    {
      "constant": false,
      "inputs": [],
      "name": "disableBetting_only_Owner",
      "outputs": [],
      "payable": false,
      "stateMutability": "nonpayable",
      "type": "function"
    },
    {
      "constant": false,
      "inputs": [],
      "name": "enableBetting_only_Owner",
      "outputs": [],
      "payable": false,
      "stateMutability": "nonpayable",
      "type": "function"
    },
    {
      "constant": false,
      "inputs": [],
      "name": "checkBetValue",
      "outputs": [
        {
          "name": "",
          "type": "uint256"
        }
      ],
      "payable": true,
      "stateMutability": "payable",
      "type": "function"
    },
    {
      "constant": false,
      "inputs": [
        {
          "name": "input_",
          "type": "bool"
        }
      ],
      "name": "placeBet",
      "outputs": [],
      "payable": true,
      "stateMutability": "payable",
      "type": "function"
    },
    {
      "constant": false,
      "inputs": [
        {
          "name": "playerBet",
          "type": "address"
        }
      ],
      "name": "resolveBet",
      "outputs": [],
      "payable": true,
      "stateMutability": "payable",
      "type": "function"
    }
  ],
  "bytecode": "0x60806040523480156200001157600080fd5b50336000806101000a81548173ffffffffffffffffffffffffffffffffffffffff021916908373ffffffffffffffffffffffffffffffffffffffff1602179055506000809054906101000a900473ffffffffffffffffffffffffffffffffffffffff1673ffffffffffffffffffffffffffffffffffffffff16600073ffffffffffffffffffffffffffffffffffffffff167f8be0079c531659141344cd1fd0a4f28419497f9722a3daafe3b4186f6b6457e060405160405180910390a3620000e83362000126640100000000026401000000009004565b6000600260006101000a81548160ff021916908315150217905550662386f26fc10000600481905550670de0b6b3a7640000600381905550620002e8565b6200014a8160016200019064010000000002620014b5179091906401000000009004565b8073ffffffffffffffffffffffffffffffffffffffff167f6719d08c1888103bea251a4ed56406bd0c3e69723c8a1686e017e7bbe159b6f860405160405180910390a250565b600073ffffffffffffffffffffffffffffffffffffffff168173ffffffffffffffffffffffffffffffffffffffff1614151515620001cd57600080fd5b620001e8828262000253640100000000026401000000009004565b151515620001f557600080fd5b60018260000160008373ffffffffffffffffffffffffffffffffffffffff1673ffffffffffffffffffffffffffffffffffffffff16815260200190815260200160002060006101000a81548160ff0219169083151502179055505050565b60008073ffffffffffffffffffffffffffffffffffffffff168273ffffffffffffffffffffffffffffffffffffffff16141515156200029157600080fd5b8260000160008373ffffffffffffffffffffffffffffffffffffffff1673ffffffffffffffffffffffffffffffffffffffff16815260200190815260200160002060009054906101000a900460ff16905092915050565b61159180620002f86000396000f3fe608060405260043610610112576000357c0100000000000000000000000000000000000000000000000000000000900463ffffffff168063096a37781461013257806311610c2514610162578063148105ab146101fa57806319c76700146102045780632c233cf11461023f5780632e5b2168146102565780633f4ba83a1461028157806346fbf68e1461029857806353f818d6146103015780635c975abb1461031f5780636ef8d66d1461034e578063715018a61461036557806382dc1ec41461037c5780638456cb59146103cd5780638da5cb5b146103e45780638f32d59b1461043b5780639619367d1461046a578063d0b8a36114610495578063ec15740c146104d9578063f2fde38b146104f0575b6001600560000160166101000a81548160ff021916908315150217905550005b6101606004803603602081101561014857600080fd5b81019080803515159060200190929190505050610541565b005b34801561016e57600080fd5b506101776107ff565b604051808973ffffffffffffffffffffffffffffffffffffffff1673ffffffffffffffffffffffffffffffffffffffff168152602001881515151581526020018715151515815260200186151515158152602001858152602001848152602001838152602001821515151581526020019850505050505050505060405180910390f35b610202610889565b005b34801561021057600080fd5b5061023d6004803603602081101561022757600080fd5b8101908080359060200190929190505050610908565b005b34801561024b57600080fd5b506102546109b3565b005b34801561026257600080fd5b5061026b610a08565b6040518082815260200191505060405180910390f35b34801561028d57600080fd5b50610296610a0e565b005b3480156102a457600080fd5b506102e7600480360360208110156102bb57600080fd5b81019080803573ffffffffffffffffffffffffffffffffffffffff169060200190929190505050610abd565b604051808215151515815260200191505060405180910390f35b610309610ada565b6040518082815260200191505060405180910390f35b34801561032b57600080fd5b50610334610b76565b604051808215151515815260200191505060405180910390f35b34801561035a57600080fd5b50610363610b8d565b005b34801561037157600080fd5b5061037a610b98565b005b34801561038857600080fd5b506103cb6004803603602081101561039f57600080fd5b81019080803573ffffffffffffffffffffffffffffffffffffffff169060200190929190505050610c6a565b005b3480156103d957600080fd5b506103e2610c8a565b005b3480156103f057600080fd5b506103f9610d3a565b604051808273ffffffffffffffffffffffffffffffffffffffff1673ffffffffffffffffffffffffffffffffffffffff16815260200191505060405180910390f35b34801561044757600080fd5b50610450610d63565b604051808215151515815260200191505060405180910390f35b34801561047657600080fd5b5061047f610dba565b6040518082815260200191505060405180910390f35b6104d7600480360360208110156104ab57600080fd5b81019080803573ffffffffffffffffffffffffffffffffffffffff169060200190929190505050610dc0565b005b3480156104e557600080fd5b506104ee611150565b005b3480156104fc57600080fd5b5061053f6004803603602081101561051357600080fd5b81019080803573ffffffffffffffffffffffffffffffffffffffff1690602001909291905050506111a5565b005b60018081111561054d57fe5b600a60019054906101000a900460ff16600181111561056857fe5b141515156105de576040517f08c379a00000000000000000000000000000000000000000000000000000000081526004018080602001828103825260118152602001807f42657474696e672064697361626c65642e00000000000000000000000000000081525060200191505060405180910390fd5b600260009054906101000a900460ff161515156105fa57600080fd5b6000600181111561060757fe5b600a60009054906101000a900460ff16600181111561062257fe5b14156106325761063133610dc0565b5b6001600a60006101000a81548160ff0219169083600181111561065157fe5b02179055506000610660610ada565b9050610100604051908101604052803373ffffffffffffffffffffffffffffffffffffffff16815260200160001515815260200160001515815260200183151581526020018281526020014381526020016000815260200160001515815250600560008201518160000160006101000a81548173ffffffffffffffffffffffffffffffffffffffff021916908373ffffffffffffffffffffffffffffffffffffffff16021790555060208201518160000160146101000a81548160ff02191690831515021790555060408201518160000160156101000a81548160ff02191690831515021790555060608201518160000160166101000a81548160ff0219169083151502179055506080820151816001015560a0820151816002015560c0820151816003015560e08201518160040160006101000a81548160ff021916908315150217905550905050348110156107fb573373ffffffffffffffffffffffffffffffffffffffff166108fc8234039081150290604051600060405180830381858888f193505050501580156107f9573d6000803e3d6000fd5b505b5050565b60058060000160009054906101000a900473ffffffffffffffffffffffffffffffffffffffff16908060000160149054906101000a900460ff16908060000160159054906101000a900460ff16908060000160169054906101000a900460ff16908060010154908060020154908060030154908060040160009054906101000a900460ff16905088565b610891610d63565b151561089c57600080fd5b600260009054906101000a900460ff161515156108b857600080fd5b7fd144f5a893f984503944e48227fe010e37b0adaf7fa746d9023e3630f837a8d73073ffffffffffffffffffffffffffffffffffffffff16316040518082815260200191505060405180910390a1565b610910610d63565b151561091b57600080fd5b3373ffffffffffffffffffffffffffffffffffffffff166108fc829081150290604051600060405180830381858888f19350505050158015610961573d6000803e3d6000fd5b507fd144f5a893f984503944e48227fe010e37b0adaf7fa746d9023e3630f837a8d73073ffffffffffffffffffffffffffffffffffffffff16316040518082815260200191505060405180910390a150565b6109bb610d63565b15156109c657600080fd5b600260009054906101000a900460ff161515156109e257600080fd5b6001600a60016101000a81548160ff02191690836001811115610a0157fe5b0217905550565b60035481565b610a1733610abd565b1515610a2257600080fd5b600260009054906101000a900460ff161515610a3d57600080fd5b6000600260006101000a81548160ff0219169083151502179055507f5db9ee0a495bf2e6ff9c91a7834c1ba4fdd244a5e8aa4e537bd38aeae4b073aa33604051808273ffffffffffffffffffffffffffffffffffffffff1673ffffffffffffffffffffffffffffffffffffffff16815260200191505060405180910390a1565b6000610ad38260016111c490919063ffffffff16565b9050919050565b6000806004543410151515610b57576040517f08c379a000000000000000000000000000000000000000000000000000000000815260040180806020018281038252600e8152602001807f42657420746f6f20736d616c6c2e00000000000000000000000000000000000081525060200191505060405180910390fd5b600354341115610b6b576003549050610b6f565b3490505b8091505090565b6000600260009054906101000a900460ff16905090565b610b9633611258565b565b610ba0610d63565b1515610bab57600080fd5b600073ffffffffffffffffffffffffffffffffffffffff166000809054906101000a900473ffffffffffffffffffffffffffffffffffffffff1673ffffffffffffffffffffffffffffffffffffffff167f8be0079c531659141344cd1fd0a4f28419497f9722a3daafe3b4186f6b6457e060405160405180910390a360008060006101000a81548173ffffffffffffffffffffffffffffffffffffffff021916908373ffffffffffffffffffffffffffffffffffffffff160217905550565b610c7333610abd565b1515610c7e57600080fd5b610c87816112b2565b50565b610c9333610abd565b1515610c9e57600080fd5b600260009054906101000a900460ff16151515610cba57600080fd5b6001600260006101000a81548160ff0219169083151502179055507f62e78cea01bee320cd4e420270b5ea74000d11b0c9f74754ebdbfc544b05a25833604051808273ffffffffffffffffffffffffffffffffffffffff1673ffffffffffffffffffffffffffffffffffffffff16815260200191505060405180910390a1565b60008060009054906101000a900473ffffffffffffffffffffffffffffffffffffffff16905090565b60008060009054906101000a900473ffffffffffffffffffffffffffffffffffffffff1673ffffffffffffffffffffffffffffffffffffffff163373ffffffffffffffffffffffffffffffffffffffff1614905090565b60045481565b600180811115610dcc57fe5b600a60009054906101000a900460ff166001811115610de757fe5b141515610e5c576040517f08c379a00000000000000000000000000000000000000000000000000000000081526004018080602001828103825260188152602001807f4e6f2062657420706c6163656420746f207265736f6c7665000000000000000081525060200191505060405180910390fd5b600560000160009054906101000a900473ffffffffffffffffffffffffffffffffffffffff1673ffffffffffffffffffffffffffffffffffffffff168173ffffffffffffffffffffffffffffffffffffffff16141515610f24576040517f08c379a00000000000000000000000000000000000000000000000000000000081526004018080602001828103825260208152602001807f4e6f2070656e64696e67206265747320666f722074686973206164647265737381525060200191505060405180910390fd5b6000336000363443604051602001808673ffffffffffffffffffffffffffffffffffffffff1673ffffffffffffffffffffffffffffffffffffffff166c01000000000000000000000000028152601401858580828437808301925050508381526020018281526020019550505050505060405160208183030381529060405280519060200120905060006001028114151515611028576040517f08c379a000000000000000000000000000000000000000000000000000000000815260040180806020018281038252600e8152602001807f426c6f636b68617368206973203000000000000000000000000000000000000081525060200191505060405180910390fd5b60006002826001900481151561103a57fe5b0614600560040160006101000a81548160ff0219169083151502179055506000600a60006101000a81548160ff0219169083600181111561107757fe5b02179055506001600560000160146101000a81548160ff02191690831515021790555043600560030181905550600560040160009054906101000a900460ff161515600560000160169054906101000a900460ff161515141561114c576001600560000160156101000a81548160ff0219169083151502179055508173ffffffffffffffffffffffffffffffffffffffff166108fc670de0b6b3a7640000600560010154600202029081150290604051600060405180830381858888f1935050505015801561114a573d6000803e3d6000fd5b505b5050565b611158610d63565b151561116357600080fd5b600260009054906101000a900460ff1615151561117f57600080fd5b6000600a60016101000a81548160ff0219169083600181111561119e57fe5b0217905550565b6111ad610d63565b15156111b857600080fd5b6111c18161130c565b50565b60008073ffffffffffffffffffffffffffffffffffffffff168273ffffffffffffffffffffffffffffffffffffffff161415151561120157600080fd5b8260000160008373ffffffffffffffffffffffffffffffffffffffff1673ffffffffffffffffffffffffffffffffffffffff16815260200190815260200160002060009054906101000a900460ff16905092915050565b61126c81600161140690919063ffffffff16565b8073ffffffffffffffffffffffffffffffffffffffff167fcd265ebaf09df2871cc7bd4133404a235ba12eff2041bb89d9c714a2621c7c7e60405160405180910390a250565b6112c68160016114b590919063ffffffff16565b8073ffffffffffffffffffffffffffffffffffffffff167f6719d08c1888103bea251a4ed56406bd0c3e69723c8a1686e017e7bbe159b6f860405160405180910390a250565b600073ffffffffffffffffffffffffffffffffffffffff168173ffffffffffffffffffffffffffffffffffffffff161415151561134857600080fd5b8073ffffffffffffffffffffffffffffffffffffffff166000809054906101000a900473ffffffffffffffffffffffffffffffffffffffff1673ffffffffffffffffffffffffffffffffffffffff167f8be0079c531659141344cd1fd0a4f28419497f9722a3daafe3b4186f6b6457e060405160405180910390a3806000806101000a81548173ffffffffffffffffffffffffffffffffffffffff021916908373ffffffffffffffffffffffffffffffffffffffff16021790555050565b600073ffffffffffffffffffffffffffffffffffffffff168173ffffffffffffffffffffffffffffffffffffffff161415151561144257600080fd5b61144c82826111c4565b151561145757600080fd5b60008260000160008373ffffffffffffffffffffffffffffffffffffffff1673ffffffffffffffffffffffffffffffffffffffff16815260200190815260200160002060006101000a81548160ff0219169083151502179055505050565b600073ffffffffffffffffffffffffffffffffffffffff168173ffffffffffffffffffffffffffffffffffffffff16141515156114f157600080fd5b6114fb82826111c4565b15151561150757600080fd5b60018260000160008373ffffffffffffffffffffffffffffffffffffffff1673ffffffffffffffffffffffffffffffffffffffff16815260200190815260200160002060006101000a81548160ff021916908315150217905550505056fea165627a7a723058206404f6caf623ff409422187a4d82278754616027b071f607114c3fa1a95604060029",
  "source": "pragma solidity ^0.5.0;\n\nimport \"openzeppelin-solidity/contracts/ownership/Ownable.sol\";\nimport \"openzeppelin-solidity/contracts/lifecycle/Pausable.sol\";\n\n/// @author Colin McCrae, colin.mccrae@gmail.com\n/// @title final-project-colinmccrae: SimpleBet\n/// @dev Contract SimpleBet will inherit the contracts Ownable and Pausable from the OpenZeppelin libarary (/node_modules/openzeppelin-solidity/contracts)\n/// @dev Pausable is a circuit breaker which blocks all contract functions expect withdrawl by the owner \ncontract SimpleBet is Ownable, Pausable {\n\n    // Game and global variables\n    // maxBet Minimum bet size\n    // minBet Maximum bet size\n    uint256 public maxBet;\n    uint256 public minBet;\n\n    // Record bets in a struct\n    // Bet.player Address of player\n    // Bet.resolved Has the bet been resolved yet?\n    // Bet.win Is the bet a winning bet?\n    // Bet.input User's bet (heads or tails)\n    // Bet.betSize User's bet size\n    // Bet.blockBet The block number the bet is placed \n    // Bet.blockResolved The block number the bet is resolved\n    // Bet.betResult The result of the random number generation\n    struct Bet {\n        address payable player;\n        bool resolved;\n        bool win;\n        bool input;\n        uint256 betSize;\n        uint256 blockBet;\n        uint256 blockResolved;\n        bool betResult;\n    }\n    Bet public bet;\n    \n    // Tracks the current bet status\n    enum Status {waitingForBet, waitingForResolve}\n    // playerStatus.waitingForBet Contract is ready to accept a bet\n    // playerStatus.waitingForResolve Contract is ready to resolve a bet\n    Status private playerStatus;\n\n    event bankrollUpdated(uint _newBankroll);\n\n    /// @dev Constructor with contract deployment inital settings \n    // minBet Minimum bet size (1 Ether = 1,000 Finney)\n    // maxBet Maximum bet size (1 Ether = 1,000 Finney)\n    constructor() public {\n        minBet = 10 finney;\n        maxBet = 1000 finney;\n    }\n\n    /// @dev The fallback function (if player doesn't specify heads or tails) makes the default bet true (heads)\n    function () external payable\n        {\n        bet.input = true;\n    } \n\n    /// @dev The owner can add more bankroll to the contract when the contract is not paused (even if betting is disabled)\n    function addBankroll() public payable \n        onlyOwner\n        whenNotPaused {\n        emit bankrollUpdated(address(this).balance);   \n    }\n\n    /// @dev The owner can add more bankroll to the contract when the contract is not paused (even if betting is disabled)\n    /// @param amount Value to be withdrawn in wei\n    function withdrawBankroll(uint amount) public \n        onlyOwner {\n        msg.sender.transfer(amount);\n        emit bankrollUpdated(address(this).balance);  \n    }\n\n    // An emum which keeps track of whether betting is enabled or disabled\n    enum States{active, inactive}\n    // contract_state.active Betting enabled\n    // contract_state.inactive Betting disabled\n    States private contract_state;\n    \n    /// @dev Owner is able to disable betting when the contract is not paused\n    function disableBetting_only_Owner() public\n        onlyOwner \n        whenNotPaused {\n        contract_state = States.inactive;\n    }\n\n    /// @dev Owner is able to enable betting when the contract is not paused\n    function enableBetting_only_Owner() public\n        onlyOwner\n        whenNotPaused {\n        contract_state = States.active;\n    }\n\n    /// @dev A modifier that requires the betting to be enabled\n    modifier onlyActive() {\n        require (contract_state!=States.inactive, \"Betting disabled.\");\n        _;\n    }\n\n    /// @dev Function ensures the bet size is in the valid range\n    /// @return playerBetValue The accepted bet value   \n    function checkBetValue() public payable returns(uint256) {\n        uint256 playerBetValue;\n        require (msg.value >= minBet, \"Bet too small.\");\n\n        if (msg.value > maxBet){\n            playerBetValue = maxBet;\n        }\n        else {\n            playerBetValue = msg.value;\n        }\n        return playerBetValue;\n    }\n\n    /// @dev Fuction records the bet details. To be public as it will be called by the user.\n    /// @dev User sends Ether as the bet. This function only works when betting is enabled, and contract not paused.  \n    /// @param input_ The user's bet (true = heads, false = tails) \n    function placeBet(bool input_) public \n        payable\n        onlyActive\n        whenNotPaused {\n        if (playerStatus == Status.waitingForBet) {\n            resolveBet(msg.sender);\n        }\n        /// @dev Update contract status from waiting for bet to waiting for resolve.\n        playerStatus = Status.waitingForResolve;\n\n        /// @dev Ensure bet size is in range\n        uint256 betValue = checkBetValue();\n        \n        /// @param Bet(player address, resolved, win, input, betSize, blockBet, blockResoved, betResult)\n        bet = Bet(msg.sender, false, false, input_, betValue, block.number, 0, false);\n\n        /// @dev Refund excess bet to user (do this at the very last step of the function to prevent a re-entrancy attack)\n        if (betValue < msg.value) {\n            msg.sender.transfer(msg.value - betValue);\n        }\n    }\n\n    /// @dev Fuction resolves the bet.\n    /// @param playerBet Address of player who has made the bet\n    function resolveBet(address payable playerBet) public payable {\n        // Check that a bet has been made to resolve\n        require(playerStatus == Status.waitingForResolve, \"No bet placed to resolve\");\n        require(playerBet == bet.player, \"No pending bets for this address\");\n\t    // Get a pseudorandom number from the hash of four paramters\n        bytes32 _pseudoRandomResult = keccak256 (abi.encodePacked(msg.sender, msg.data, msg.value, block.number));\n        \n        // Security check to ensure the pseudorandom number is not empty or zero\n        require (_pseudoRandomResult != 0, \"Blockhash is 0\");\n        \n        // Determine heads or tails (true or false) using modulo division\n        bet.betResult = uint256(_pseudoRandomResult) % 2 == 0;\n\n        // Update status and record result\n        playerStatus = Status.waitingForBet;\n        bet.resolved = true;\n        bet.blockResolved = block.number;\n\t\n        if (bet.input == bet.betResult) {\n            bet.win = true;\n//            uint payout = (2 * bet.betSize * 10**18);\n            playerBet.transfer(2 * bet.betSize * 10**18);\n        }\n  \n\n    }\n\n\n\n\n}\n",
  "sourcePath": "/home/colin/localdev/consensys/final-project-colinmccrae/contracts/SimpleBet.sol",
  "compiler": {
    "name": "solc",
    "version": "0.5.0+commit.1d4f565a.Emscripten.clang"
  },
  "schemaVersion": "3.0.1",
  "updatedAt": "2019-01-25T15:53:23.812Z",
  "devdoc": {
    "author": "Colin McCrae, colin.mccrae@gmail.com",
    "details": "Contract SimpleBet will inherit the contracts Ownable and Pausable from the OpenZeppelin libarary (/node_modules/openzeppelin-solidity/contracts)Pausable is a circuit breaker which blocks all contract functions expect withdrawl by the owner ",
    "methods": {
      "addBankroll()": {
        "details": "The owner can add more bankroll to the contract when the contract is not paused (even if betting is disabled)"
      },
      "checkBetValue()": {
        "details": "Function ensures the bet size is in the valid range",
        "return": "playerBetValue The accepted bet value   "
      },
      "constructor": {
        "details": "Constructor with contract deployment inital settings "
      },
      "disableBetting_only_Owner()": {
        "details": "Owner is able to disable betting when the contract is not paused"
      },
      "enableBetting_only_Owner()": {
        "details": "Owner is able to enable betting when the contract is not paused"
      },
      "isOwner()": {
        "return": "true if `msg.sender` is the owner of the contract."
      },
      "owner()": {
        "return": "the address of the owner."
      },
      "pause()": {
        "details": "called by the owner to pause, triggers stopped state"
      },
      "paused()": {
        "return": "true if the contract is paused, false otherwise."
      },
      "placeBet(bool)": {
        "details": "Fuction records the bet details. To be public as it will be called by the user.User sends Ether as the bet. This function only works when betting is enabled, and contract not paused.  ",
        "params": {
          "input_": "The user's bet (true = heads, false = tails) "
        }
      },
      "renounceOwnership()": {
        "details": "Allows the current owner to relinquish control of the contract."
      },
      "resolveBet(address)": {
        "details": "Fuction resolves the bet.",
        "params": {
          "playerBet": "Address of player who has made the bet"
        }
      },
      "transferOwnership(address)": {
        "details": "Allows the current owner to transfer control of the contract to a newOwner.",
        "params": {
          "newOwner": "The address to transfer ownership to."
        }
      },
      "unpause()": {
        "details": "called by the owner to unpause, returns to normal state"
      },
      "withdrawBankroll(uint256)": {
        "details": "The owner can add more bankroll to the contract when the contract is not paused (even if betting is disabled)",
        "params": {
          "amount": "Value to be withdrawn in wei"
        }
      }
    },
    "title": "final-project-colinmccrae: SimpleBet"
  },
  "userdoc": {
    "methods": {
      "renounceOwnership()": {
        "notice": "Renouncing to ownership will leave the contract without an owner. It will not be possible to call the functions with the `onlyOwner` modifier anymore."
      }
    }
  }
}