{
  "contractName": "SimpleBet",
  "abi": [
    {
      "constant": true,
      "inputs": [],
      "name": "maxBet",
      "outputs": [
        {
          "name": "",
          "type": "uint256"
        }
      ],
      "payable": false,
      "stateMutability": "view",
      "type": "function"
    },
    {
      "constant": false,
      "inputs": [],
      "name": "unpause",
      "outputs": [],
      "payable": false,
      "stateMutability": "nonpayable",
      "type": "function"
    },
    {
      "constant": true,
      "inputs": [
        {
          "name": "account",
          "type": "address"
        }
      ],
      "name": "isPauser",
      "outputs": [
        {
          "name": "",
          "type": "bool"
        }
      ],
      "payable": false,
      "stateMutability": "view",
      "type": "function"
    },
    {
      "constant": true,
      "inputs": [],
      "name": "paused",
      "outputs": [
        {
          "name": "",
          "type": "bool"
        }
      ],
      "payable": false,
      "stateMutability": "view",
      "type": "function"
    },
    {
      "constant": false,
      "inputs": [],
      "name": "renouncePauser",
      "outputs": [],
      "payable": false,
      "stateMutability": "nonpayable",
      "type": "function"
    },
    {
      "constant": false,
      "inputs": [],
      "name": "renounceOwnership",
      "outputs": [],
      "payable": false,
      "stateMutability": "nonpayable",
      "type": "function"
    },
    {
      "constant": false,
      "inputs": [
        {
          "name": "account",
          "type": "address"
        }
      ],
      "name": "addPauser",
      "outputs": [],
      "payable": false,
      "stateMutability": "nonpayable",
      "type": "function"
    },
    {
      "constant": false,
      "inputs": [],
      "name": "pause",
      "outputs": [],
      "payable": false,
      "stateMutability": "nonpayable",
      "type": "function"
    },
    {
      "constant": true,
      "inputs": [],
      "name": "owner",
      "outputs": [
        {
          "name": "",
          "type": "address"
        }
      ],
      "payable": false,
      "stateMutability": "view",
      "type": "function"
    },
    {
      "constant": true,
      "inputs": [],
      "name": "isOwner",
      "outputs": [
        {
          "name": "",
          "type": "bool"
        }
      ],
      "payable": false,
      "stateMutability": "view",
      "type": "function"
    },
    {
      "constant": true,
      "inputs": [],
      "name": "minBet",
      "outputs": [
        {
          "name": "",
          "type": "uint256"
        }
      ],
      "payable": false,
      "stateMutability": "view",
      "type": "function"
    },
    {
      "constant": true,
      "inputs": [],
      "name": "blockExpiration",
      "outputs": [
        {
          "name": "",
          "type": "uint8"
        }
      ],
      "payable": false,
      "stateMutability": "view",
      "type": "function"
    },
    {
      "constant": true,
      "inputs": [],
      "name": "blockDelay",
      "outputs": [
        {
          "name": "",
          "type": "uint8"
        }
      ],
      "payable": false,
      "stateMutability": "view",
      "type": "function"
    },
    {
      "constant": false,
      "inputs": [
        {
          "name": "newOwner",
          "type": "address"
        }
      ],
      "name": "transferOwnership",
      "outputs": [],
      "payable": false,
      "stateMutability": "nonpayable",
      "type": "function"
    },
    {
      "inputs": [],
      "payable": false,
      "stateMutability": "nonpayable",
      "type": "constructor"
    },
    {
      "anonymous": false,
      "inputs": [
        {
          "indexed": false,
          "name": "account",
          "type": "address"
        }
      ],
      "name": "Paused",
      "type": "event"
    },
    {
      "anonymous": false,
      "inputs": [
        {
          "indexed": false,
          "name": "account",
          "type": "address"
        }
      ],
      "name": "Unpaused",
      "type": "event"
    },
    {
      "anonymous": false,
      "inputs": [
        {
          "indexed": true,
          "name": "account",
          "type": "address"
        }
      ],
      "name": "PauserAdded",
      "type": "event"
    },
    {
      "anonymous": false,
      "inputs": [
        {
          "indexed": true,
          "name": "account",
          "type": "address"
        }
      ],
      "name": "PauserRemoved",
      "type": "event"
    },
    {
      "anonymous": false,
      "inputs": [
        {
          "indexed": true,
          "name": "previousOwner",
          "type": "address"
        },
        {
          "indexed": true,
          "name": "newOwner",
          "type": "address"
        }
      ],
      "name": "OwnershipTransferred",
      "type": "event"
    },
    {
      "constant": false,
      "inputs": [],
      "name": "addBankroll",
      "outputs": [],
      "payable": true,
      "stateMutability": "payable",
      "type": "function"
    },
    {
      "constant": false,
      "inputs": [],
      "name": "disableBetting_only_Owner",
      "outputs": [],
      "payable": false,
      "stateMutability": "nonpayable",
      "type": "function"
    },
    {
      "constant": false,
      "inputs": [],
      "name": "enableBetting_only_Owner",
      "outputs": [],
      "payable": false,
      "stateMutability": "nonpayable",
      "type": "function"
    }
  ],
  "bytecode": "0x608060405234801561001057600080fd5b50336000806101000a81548173ffffffffffffffffffffffffffffffffffffffff021916908373ffffffffffffffffffffffffffffffffffffffff1602179055506000809054906101000a900473ffffffffffffffffffffffffffffffffffffffff1673ffffffffffffffffffffffffffffffffffffffff16600073ffffffffffffffffffffffffffffffffffffffff167f8be0079c531659141344cd1fd0a4f28419497f9722a3daafe3b4186f6b6457e060405160405180910390a36100e533610159640100000000026401000000009004565b6000600260006101000a81548160ff0219169083151502179055506000600260016101000a81548160ff021916908360ff16021790555060646002806101000a81548160ff021916908360ff160217905550662386f26fc10000600481905550670de0b6b3a7640000600381905550610313565b61017a8160016101c064010000000002610b0a179091906401000000009004565b8073ffffffffffffffffffffffffffffffffffffffff167f6719d08c1888103bea251a4ed56406bd0c3e69723c8a1686e017e7bbe159b6f860405160405180910390a250565b600073ffffffffffffffffffffffffffffffffffffffff168173ffffffffffffffffffffffffffffffffffffffff16141515156101fc57600080fd5b610215828261027f640100000000026401000000009004565b15151561022157600080fd5b60018260000160008373ffffffffffffffffffffffffffffffffffffffff1673ffffffffffffffffffffffffffffffffffffffff16815260200190815260200160002060006101000a81548160ff0219169083151502179055505050565b60008073ffffffffffffffffffffffffffffffffffffffff168273ffffffffffffffffffffffffffffffffffffffff16141515156102bc57600080fd5b8260000160008373ffffffffffffffffffffffffffffffffffffffff1673ffffffffffffffffffffffffffffffffffffffff16815260200190815260200160002060009054906101000a900460ff16905092915050565b610be6806103226000396000f3fe6080604052600436106100f1576000357c0100000000000000000000000000000000000000000000000000000000900463ffffffff168063148105ab146100f65780632c233cf1146101005780632e5b2168146101175780633f4ba83a1461014257806346fbf68e146101595780635c975abb146101c25780636ef8d66d146101f1578063715018a61461020857806382dc1ec41461021f5780638456cb59146102705780638da5cb5b146102875780638f32d59b146102de5780639619367d1461030d578063d4595aaa14610338578063d98f608814610369578063ec15740c1461039a578063f2fde38b146103b1575b600080fd5b6100fe610402565b005b34801561010c57600080fd5b50610115610433565b005b34801561012357600080fd5b5061012c610464565b6040518082815260200191505060405180910390f35b34801561014e57600080fd5b5061015761046a565b005b34801561016557600080fd5b506101a86004803603602081101561017c57600080fd5b81019080803573ffffffffffffffffffffffffffffffffffffffff169060200190929190505050610519565b604051808215151515815260200191505060405180910390f35b3480156101ce57600080fd5b506101d7610536565b604051808215151515815260200191505060405180910390f35b3480156101fd57600080fd5b5061020661054d565b005b34801561021457600080fd5b5061021d610558565b005b34801561022b57600080fd5b5061026e6004803603602081101561024257600080fd5b81019080803573ffffffffffffffffffffffffffffffffffffffff16906020019092919050505061062a565b005b34801561027c57600080fd5b5061028561064a565b005b34801561029357600080fd5b5061029c6106fa565b604051808273ffffffffffffffffffffffffffffffffffffffff1673ffffffffffffffffffffffffffffffffffffffff16815260200191505060405180910390f35b3480156102ea57600080fd5b506102f3610723565b604051808215151515815260200191505060405180910390f35b34801561031957600080fd5b5061032261077a565b6040518082815260200191505060405180910390f35b34801561034457600080fd5b5061034d610780565b604051808260ff1660ff16815260200191505060405180910390f35b34801561037557600080fd5b5061037e610792565b604051808260ff1660ff16815260200191505060405180910390f35b3480156103a657600080fd5b506103af6107a5565b005b3480156103bd57600080fd5b50610400600480360360208110156103d457600080fd5b81019080803573ffffffffffffffffffffffffffffffffffffffff1690602001909291905050506107fa565b005b61040a610723565b151561041557600080fd5b600260009054906101000a900460ff1615151561043157600080fd5b565b61043b610723565b151561044657600080fd5b600260009054906101000a900460ff1615151561046257600080fd5b565b60035481565b61047333610519565b151561047e57600080fd5b600260009054906101000a900460ff16151561049957600080fd5b6000600260006101000a81548160ff0219169083151502179055507f5db9ee0a495bf2e6ff9c91a7834c1ba4fdd244a5e8aa4e537bd38aeae4b073aa33604051808273ffffffffffffffffffffffffffffffffffffffff1673ffffffffffffffffffffffffffffffffffffffff16815260200191505060405180910390a1565b600061052f82600161081990919063ffffffff16565b9050919050565b6000600260009054906101000a900460ff16905090565b610556336108ad565b565b610560610723565b151561056b57600080fd5b600073ffffffffffffffffffffffffffffffffffffffff166000809054906101000a900473ffffffffffffffffffffffffffffffffffffffff1673ffffffffffffffffffffffffffffffffffffffff167f8be0079c531659141344cd1fd0a4f28419497f9722a3daafe3b4186f6b6457e060405160405180910390a360008060006101000a81548173ffffffffffffffffffffffffffffffffffffffff021916908373ffffffffffffffffffffffffffffffffffffffff160217905550565b61063333610519565b151561063e57600080fd5b61064781610907565b50565b61065333610519565b151561065e57600080fd5b600260009054906101000a900460ff1615151561067a57600080fd5b6001600260006101000a81548160ff0219169083151502179055507f62e78cea01bee320cd4e420270b5ea74000d11b0c9f74754ebdbfc544b05a25833604051808273ffffffffffffffffffffffffffffffffffffffff1673ffffffffffffffffffffffffffffffffffffffff16815260200191505060405180910390a1565b60008060009054906101000a900473ffffffffffffffffffffffffffffffffffffffff16905090565b60008060009054906101000a900473ffffffffffffffffffffffffffffffffffffffff1673ffffffffffffffffffffffffffffffffffffffff163373ffffffffffffffffffffffffffffffffffffffff1614905090565b60045481565b6002809054906101000a900460ff1681565b600260019054906101000a900460ff1681565b6107ad610723565b15156107b857600080fd5b600260009054906101000a900460ff161515156107d457600080fd5b6000600660006101000a81548160ff021916908360018111156107f357fe5b0217905550565b610802610723565b151561080d57600080fd5b61081681610961565b50565b60008073ffffffffffffffffffffffffffffffffffffffff168273ffffffffffffffffffffffffffffffffffffffff161415151561085657600080fd5b8260000160008373ffffffffffffffffffffffffffffffffffffffff1673ffffffffffffffffffffffffffffffffffffffff16815260200190815260200160002060009054906101000a900460ff16905092915050565b6108c1816001610a5b90919063ffffffff16565b8073ffffffffffffffffffffffffffffffffffffffff167fcd265ebaf09df2871cc7bd4133404a235ba12eff2041bb89d9c714a2621c7c7e60405160405180910390a250565b61091b816001610b0a90919063ffffffff16565b8073ffffffffffffffffffffffffffffffffffffffff167f6719d08c1888103bea251a4ed56406bd0c3e69723c8a1686e017e7bbe159b6f860405160405180910390a250565b600073ffffffffffffffffffffffffffffffffffffffff168173ffffffffffffffffffffffffffffffffffffffff161415151561099d57600080fd5b8073ffffffffffffffffffffffffffffffffffffffff166000809054906101000a900473ffffffffffffffffffffffffffffffffffffffff1673ffffffffffffffffffffffffffffffffffffffff167f8be0079c531659141344cd1fd0a4f28419497f9722a3daafe3b4186f6b6457e060405160405180910390a3806000806101000a81548173ffffffffffffffffffffffffffffffffffffffff021916908373ffffffffffffffffffffffffffffffffffffffff16021790555050565b600073ffffffffffffffffffffffffffffffffffffffff168173ffffffffffffffffffffffffffffffffffffffff1614151515610a9757600080fd5b610aa18282610819565b1515610aac57600080fd5b60008260000160008373ffffffffffffffffffffffffffffffffffffffff1673ffffffffffffffffffffffffffffffffffffffff16815260200190815260200160002060006101000a81548160ff0219169083151502179055505050565b600073ffffffffffffffffffffffffffffffffffffffff168173ffffffffffffffffffffffffffffffffffffffff1614151515610b4657600080fd5b610b508282610819565b151515610b5c57600080fd5b60018260000160008373ffffffffffffffffffffffffffffffffffffffff1673ffffffffffffffffffffffffffffffffffffffff16815260200190815260200160002060006101000a81548160ff021916908315150217905550505056fea165627a7a723058207f7695f4adbec045b1e6814dde2800f32115dcc8c7ed15507d1f8d0c8fa6adad0029",
  "source": "pragma solidity ^0.5.0;\n\nimport \"openzeppelin-solidity/contracts/ownership/Ownable.sol\";\nimport \"openzeppelin-solidity/contracts/lifecycle/Pausable.sol\";\n\ncontract SimpleBet is Ownable, Pausable {\n\n    // Game and Global Variables\n    uint8 public blockDelay; // How many blocks to wait to resolve RNG and allow payout\n    uint8 public blockExpiration; // How many blocks until bet expires\n    uint256 public maxBet; // Minimum bet size\n    uint256 public minBet; // Maximum bet size\n\n    // Record Bets in Struct\n    struct Bet {\n        address player;\n        bool rngResolved;\n        bool win;\n        bool input; // Stores bettor input\n        uint256 wager;\n        uint256 blockNumber; //block of bet\n        uint256 blockResolved; //block of spin\n        uint8 betResult;\n    }\n\n    Bet[] private bet;\n    \n    //records current status of player\n    enum Status {waitingForBet, waitingForResolved}\n\n\n    // Constructor with contract deployment inital settings \n    constructor() public {    \n        blockDelay = 0;          // How many blocks to wait to resolve RNG and allow payout\n        blockExpiration = 100;    // How many blocks until bet expires\n        minBet = 10 finney;        // Minimum bet size (1 Ether = 1,000 Finney)\n        maxBet = 1000 finney;     // Maximum bet size (1 Ether = 1,000 Finney)\n\n    }\n\n\n    function addBankroll() public payable \n        onlyOwner\n        whenNotPaused {\n    }\n\n    // Enable and disable betting\n    enum States{active, inactive}\n    States private contract_state;\n    \n    function disableBetting_only_Owner() public\n        onlyOwner \n        whenNotPaused {\n    }\n\n    function enableBetting_only_Owner() public\n        onlyOwner\n        whenNotPaused {\n        contract_state = States.active;\n    }\n\n    modifier onlyActive() {\n        require (contract_state!=States.inactive, \"Contract inactive.\");\n        _;\n    }\n\n\n}\n",
  "sourcePath": "/home/colin/localdev/consensys/final-project-colinmccrae/contracts/SimpleBet.sol",
  "compiler": {
    "name": "solc",
    "version": "0.5.0+commit.1d4f565a.Emscripten.clang"
  },
  "schemaVersion": "3.0.1",
  "updatedAt": "2019-01-23T21:08:59.952Z",
  "devdoc": {
    "methods": {
      "isOwner()": {
        "return": "true if `msg.sender` is the owner of the contract."
      },
      "owner()": {
        "return": "the address of the owner."
      },
      "pause()": {
        "details": "called by the owner to pause, triggers stopped state"
      },
      "paused()": {
        "return": "true if the contract is paused, false otherwise."
      },
      "renounceOwnership()": {
        "details": "Allows the current owner to relinquish control of the contract."
      },
      "transferOwnership(address)": {
        "details": "Allows the current owner to transfer control of the contract to a newOwner.",
        "params": {
          "newOwner": "The address to transfer ownership to."
        }
      },
      "unpause()": {
        "details": "called by the owner to unpause, returns to normal state"
      }
    }
  },
  "userdoc": {
    "methods": {
      "renounceOwnership()": {
        "notice": "Renouncing to ownership will leave the contract without an owner. It will not be possible to call the functions with the `onlyOwner` modifier anymore."
      }
    }
  }
}