{
  "contractName": "SimpleBet",
  "abi": [
    {
      "constant": true,
      "inputs": [],
      "name": "maxBet",
      "outputs": [
        {
          "name": "",
          "type": "uint256"
        }
      ],
      "payable": false,
      "stateMutability": "view",
      "type": "function"
    },
    {
      "constant": true,
      "inputs": [],
      "name": "owner",
      "outputs": [
        {
          "name": "",
          "type": "address"
        }
      ],
      "payable": false,
      "stateMutability": "view",
      "type": "function"
    },
    {
      "constant": true,
      "inputs": [],
      "name": "minBet",
      "outputs": [
        {
          "name": "",
          "type": "uint256"
        }
      ],
      "payable": false,
      "stateMutability": "view",
      "type": "function"
    },
    {
      "constant": true,
      "inputs": [],
      "name": "blockExpiration",
      "outputs": [
        {
          "name": "",
          "type": "uint8"
        }
      ],
      "payable": false,
      "stateMutability": "view",
      "type": "function"
    },
    {
      "constant": true,
      "inputs": [],
      "name": "blockDelay",
      "outputs": [
        {
          "name": "",
          "type": "uint8"
        }
      ],
      "payable": false,
      "stateMutability": "view",
      "type": "function"
    },
    {
      "inputs": [],
      "payable": false,
      "stateMutability": "nonpayable",
      "type": "constructor"
    },
    {
      "constant": false,
      "inputs": [],
      "name": "addBankroll",
      "outputs": [],
      "payable": true,
      "stateMutability": "payable",
      "type": "function"
    },
    {
      "constant": false,
      "inputs": [],
      "name": "disableBetting_only_Owner",
      "outputs": [],
      "payable": false,
      "stateMutability": "nonpayable",
      "type": "function"
    },
    {
      "constant": false,
      "inputs": [],
      "name": "enableBetting_only_Owner",
      "outputs": [],
      "payable": false,
      "stateMutability": "nonpayable",
      "type": "function"
    }
  ],
  "bytecode": "0x608060405234801561001057600080fd5b50336000806101000a81548173ffffffffffffffffffffffffffffffffffffffff021916908373ffffffffffffffffffffffffffffffffffffffff16021790555060008060146101000a81548160ff021916908360ff1602179055506064600060156101000a81548160ff021916908360ff160217905550662386f26fc10000600281905550670de0b6b3a76400006001819055506104f7806100b46000396000f3fe60806040526004361061008e576000357c0100000000000000000000000000000000000000000000000000000000900463ffffffff168063148105ab146100935780632c233cf11461009d5780632e5b2168146100b45780638da5cb5b146100df5780639619367d14610136578063d4595aaa14610161578063d98f608814610192578063ec15740c146101c3575b600080fd5b61009b6101da565b005b3480156100a957600080fd5b506100b26102a0565b005b3480156100c057600080fd5b506100c961038a565b6040518082815260200191505060405180910390f35b3480156100eb57600080fd5b506100f4610390565b604051808273ffffffffffffffffffffffffffffffffffffffff1673ffffffffffffffffffffffffffffffffffffffff16815260200191505060405180910390f35b34801561014257600080fd5b5061014b6103b5565b6040518082815260200191505060405180910390f35b34801561016d57600080fd5b506101766103bb565b604051808260ff1660ff16815260200191505060405180910390f35b34801561019e57600080fd5b506101a76103ce565b604051808260ff1660ff16815260200191505060405180910390f35b3480156101cf57600080fd5b506101d86103e1565b005b6000809054906101000a900473ffffffffffffffffffffffffffffffffffffffff1673ffffffffffffffffffffffffffffffffffffffff163373ffffffffffffffffffffffffffffffffffffffff1614151561029e576040517f08c379a000000000000000000000000000000000000000000000000000000000815260040180806020018281038252600e8152602001807f4d757374206265206f776e65722e00000000000000000000000000000000000081525060200191505060405180910390fd5b565b6000809054906101000a900473ffffffffffffffffffffffffffffffffffffffff1673ffffffffffffffffffffffffffffffffffffffff163373ffffffffffffffffffffffffffffffffffffffff16141515610364576040517f08c379a000000000000000000000000000000000000000000000000000000000815260040180806020018281038252600e8152602001807f4d757374206265206f776e65722e00000000000000000000000000000000000081525060200191505060405180910390fd5b6001600460006101000a81548160ff0219169083600181111561038357fe5b0217905550565b60015481565b6000809054906101000a900473ffffffffffffffffffffffffffffffffffffffff1681565b60025481565b600060159054906101000a900460ff1681565b600060149054906101000a900460ff1681565b6000809054906101000a900473ffffffffffffffffffffffffffffffffffffffff1673ffffffffffffffffffffffffffffffffffffffff163373ffffffffffffffffffffffffffffffffffffffff161415156104a5576040517f08c379a000000000000000000000000000000000000000000000000000000000815260040180806020018281038252600e8152602001807f4d757374206265206f776e65722e00000000000000000000000000000000000081525060200191505060405180910390fd5b6000600460006101000a81548160ff021916908360018111156104c457fe5b021790555056fea165627a7a7230582085cb67105575f7483b4872e24dd60a362ba79cc5ff19de9070f3374aff3c11720029",
  "source": "pragma solidity ^0.5.0;\n\ncontract SimpleBet {\n\n    // Game and Global Variables\n    address public owner;\n    uint8 public blockDelay; // How many blocks to wait to resolve RNG and allow payout\n    uint8 public blockExpiration; // How many blocks until bet expires\n    uint256 public maxBet; // Minimum bet size\n    uint256 public minBet; // Maximum bet size\n\n    // Record Bets in Struct\n    struct Bet {\n        address player;\n        bool rngResolved;\n        bool win;\n        bool input; // Stores bettor input\n        uint256 wager;\n        uint256 blockNumber; //block of bet\n        uint256 blockResolved; //block of spin\n        uint8 betResult;\n    }\n\n    Bet[] private bet;\n    \n    //records current status of player\n    enum Status {waitingForBet, waitingForResolved}\n\n\n    // Constructor with contract deployment inital settings \n    constructor() public {    \n        owner = msg.sender;\n        blockDelay = 0;          // How many blocks to wait to resolve RNG and allow payout\n        blockExpiration = 100;    // How many blocks until bet expires\n        minBet = 10 finney;        // Minimum bet size (1 Ether = 1,000 Finney)\n        maxBet = 1000 finney;     // Maximum bet size (1 Ether = 1,000 Finney)\n\n    }\n\n    modifier onlyOwner() {\n        require(msg.sender==owner, \"Must be owner.\");\n        _;\n    }\n\n    function addBankroll() public payable \n        onlyOwner {\n    }\n\n    // Enable and disable betting\n    enum States{active, inactive}\n    States private contract_state;\n    \n    function disableBetting_only_Owner() public\n        onlyOwner {\n        contract_state = States.inactive;\n    }\n\n    function enableBetting_only_Owner() public\n        onlyOwner {\n        contract_state = States.active;\n    }\n\n    modifier onlyActive() {\n        require (contract_state!=States.inactive, \"Contract inactive.\");\n        _;\n    }\n\n\n}\n",
  "sourcePath": "/home/colin/localdev/consensys/final-project-colinmccrae/contracts/SimpleBet.sol",
  "compiler": {
    "name": "solc",
    "version": "0.5.0+commit.1d4f565a.Emscripten.clang"
  },
  "schemaVersion": "3.0.1",
  "updatedAt": "2019-01-23T20:42:18.572Z",
  "devdoc": {
    "methods": {}
  },
  "userdoc": {
    "methods": {}
  }
}