{
  "contractName": "SimpleBet",
  "abi": [
    {
      "constant": true,
      "inputs": [],
      "name": "maxBet",
      "outputs": [
        {
          "name": "",
          "type": "uint256"
        }
      ],
      "payable": false,
      "stateMutability": "view",
      "type": "function",
      "signature": "0x2e5b2168"
    },
    {
      "constant": false,
      "inputs": [],
      "name": "unpause",
      "outputs": [],
      "payable": false,
      "stateMutability": "nonpayable",
      "type": "function",
      "signature": "0x3f4ba83a"
    },
    {
      "constant": true,
      "inputs": [
        {
          "name": "account",
          "type": "address"
        }
      ],
      "name": "isPauser",
      "outputs": [
        {
          "name": "",
          "type": "bool"
        }
      ],
      "payable": false,
      "stateMutability": "view",
      "type": "function",
      "signature": "0x46fbf68e"
    },
    {
      "constant": true,
      "inputs": [],
      "name": "paused",
      "outputs": [
        {
          "name": "",
          "type": "bool"
        }
      ],
      "payable": false,
      "stateMutability": "view",
      "type": "function",
      "signature": "0x5c975abb"
    },
    {
      "constant": false,
      "inputs": [],
      "name": "renouncePauser",
      "outputs": [],
      "payable": false,
      "stateMutability": "nonpayable",
      "type": "function",
      "signature": "0x6ef8d66d"
    },
    {
      "constant": false,
      "inputs": [],
      "name": "renounceOwnership",
      "outputs": [],
      "payable": false,
      "stateMutability": "nonpayable",
      "type": "function",
      "signature": "0x715018a6"
    },
    {
      "constant": false,
      "inputs": [
        {
          "name": "account",
          "type": "address"
        }
      ],
      "name": "addPauser",
      "outputs": [],
      "payable": false,
      "stateMutability": "nonpayable",
      "type": "function",
      "signature": "0x82dc1ec4"
    },
    {
      "constant": false,
      "inputs": [],
      "name": "pause",
      "outputs": [],
      "payable": false,
      "stateMutability": "nonpayable",
      "type": "function",
      "signature": "0x8456cb59"
    },
    {
      "constant": true,
      "inputs": [],
      "name": "owner",
      "outputs": [
        {
          "name": "",
          "type": "address"
        }
      ],
      "payable": false,
      "stateMutability": "view",
      "type": "function",
      "signature": "0x8da5cb5b"
    },
    {
      "constant": true,
      "inputs": [],
      "name": "isOwner",
      "outputs": [
        {
          "name": "",
          "type": "bool"
        }
      ],
      "payable": false,
      "stateMutability": "view",
      "type": "function",
      "signature": "0x8f32d59b"
    },
    {
      "constant": true,
      "inputs": [],
      "name": "minBet",
      "outputs": [
        {
          "name": "",
          "type": "uint256"
        }
      ],
      "payable": false,
      "stateMutability": "view",
      "type": "function",
      "signature": "0x9619367d"
    },
    {
      "constant": true,
      "inputs": [],
      "name": "blockExpiration",
      "outputs": [
        {
          "name": "",
          "type": "uint8"
        }
      ],
      "payable": false,
      "stateMutability": "view",
      "type": "function",
      "signature": "0xd4595aaa"
    },
    {
      "constant": true,
      "inputs": [],
      "name": "blockDelay",
      "outputs": [
        {
          "name": "",
          "type": "uint8"
        }
      ],
      "payable": false,
      "stateMutability": "view",
      "type": "function",
      "signature": "0xd98f6088"
    },
    {
      "constant": false,
      "inputs": [
        {
          "name": "newOwner",
          "type": "address"
        }
      ],
      "name": "transferOwnership",
      "outputs": [],
      "payable": false,
      "stateMutability": "nonpayable",
      "type": "function",
      "signature": "0xf2fde38b"
    },
    {
      "inputs": [],
      "payable": false,
      "stateMutability": "nonpayable",
      "type": "constructor",
      "signature": "constructor"
    },
    {
      "payable": true,
      "stateMutability": "payable",
      "type": "fallback"
    },
    {
      "anonymous": false,
      "inputs": [
        {
          "indexed": false,
          "name": "account",
          "type": "address"
        }
      ],
      "name": "Paused",
      "type": "event",
      "signature": "0x62e78cea01bee320cd4e420270b5ea74000d11b0c9f74754ebdbfc544b05a258"
    },
    {
      "anonymous": false,
      "inputs": [
        {
          "indexed": false,
          "name": "account",
          "type": "address"
        }
      ],
      "name": "Unpaused",
      "type": "event",
      "signature": "0x5db9ee0a495bf2e6ff9c91a7834c1ba4fdd244a5e8aa4e537bd38aeae4b073aa"
    },
    {
      "anonymous": false,
      "inputs": [
        {
          "indexed": true,
          "name": "account",
          "type": "address"
        }
      ],
      "name": "PauserAdded",
      "type": "event",
      "signature": "0x6719d08c1888103bea251a4ed56406bd0c3e69723c8a1686e017e7bbe159b6f8"
    },
    {
      "anonymous": false,
      "inputs": [
        {
          "indexed": true,
          "name": "account",
          "type": "address"
        }
      ],
      "name": "PauserRemoved",
      "type": "event",
      "signature": "0xcd265ebaf09df2871cc7bd4133404a235ba12eff2041bb89d9c714a2621c7c7e"
    },
    {
      "anonymous": false,
      "inputs": [
        {
          "indexed": true,
          "name": "previousOwner",
          "type": "address"
        },
        {
          "indexed": true,
          "name": "newOwner",
          "type": "address"
        }
      ],
      "name": "OwnershipTransferred",
      "type": "event",
      "signature": "0x8be0079c531659141344cd1fd0a4f28419497f9722a3daafe3b4186f6b6457e0"
    },
    {
      "constant": false,
      "inputs": [],
      "name": "addBankroll",
      "outputs": [],
      "payable": true,
      "stateMutability": "payable",
      "type": "function",
      "signature": "0x148105ab"
    },
    {
      "constant": false,
      "inputs": [],
      "name": "disableBetting_only_Owner",
      "outputs": [],
      "payable": false,
      "stateMutability": "nonpayable",
      "type": "function",
      "signature": "0x2c233cf1"
    },
    {
      "constant": false,
      "inputs": [],
      "name": "enableBetting_only_Owner",
      "outputs": [],
      "payable": false,
      "stateMutability": "nonpayable",
      "type": "function",
      "signature": "0xec15740c"
    },
    {
      "constant": false,
      "inputs": [
        {
          "name": "input_",
          "type": "bool"
        }
      ],
      "name": "placeBet",
      "outputs": [],
      "payable": true,
      "stateMutability": "payable",
      "type": "function",
      "signature": "0x096a3778"
    }
  ],
  "bytecode": "0x608060405234801561001057600080fd5b50336000806101000a81548173ffffffffffffffffffffffffffffffffffffffff021916908373ffffffffffffffffffffffffffffffffffffffff1602179055506000809054906101000a900473ffffffffffffffffffffffffffffffffffffffff1673ffffffffffffffffffffffffffffffffffffffff16600073ffffffffffffffffffffffffffffffffffffffff167f8be0079c531659141344cd1fd0a4f28419497f9722a3daafe3b4186f6b6457e060405160405180910390a36100e533610159640100000000026401000000009004565b6000600260006101000a81548160ff0219169083151502179055506000600260016101000a81548160ff021916908360ff16021790555060646002806101000a81548160ff021916908360ff160217905550662386f26fc10000600481905550670de0b6b3a7640000600381905550610313565b61017a8160016101c064010000000002610ee1179091906401000000009004565b8073ffffffffffffffffffffffffffffffffffffffff167f6719d08c1888103bea251a4ed56406bd0c3e69723c8a1686e017e7bbe159b6f860405160405180910390a250565b600073ffffffffffffffffffffffffffffffffffffffff168173ffffffffffffffffffffffffffffffffffffffff16141515156101fc57600080fd5b610215828261027f640100000000026401000000009004565b15151561022157600080fd5b60018260000160008373ffffffffffffffffffffffffffffffffffffffff1673ffffffffffffffffffffffffffffffffffffffff16815260200190815260200160002060006101000a81548160ff0219169083151502179055505050565b60008073ffffffffffffffffffffffffffffffffffffffff168273ffffffffffffffffffffffffffffffffffffffff16141515156102bc57600080fd5b8260000160008373ffffffffffffffffffffffffffffffffffffffff1673ffffffffffffffffffffffffffffffffffffffff16815260200190815260200160002060009054906101000a900460ff16905092915050565b610fbd806103226000396000f3fe6080604052600436106100fc576000357c0100000000000000000000000000000000000000000000000000000000900463ffffffff168063096a37781461011c578063148105ab1461014c5780632c233cf1146101565780632e5b21681461016d5780633f4ba83a1461019857806346fbf68e146101af5780635c975abb146102185780636ef8d66d14610247578063715018a61461025e57806382dc1ec4146102755780638456cb59146102c65780638da5cb5b146102dd5780638f32d59b146103345780639619367d14610363578063d4595aaa1461038e578063d98f6088146103bf578063ec15740c146103f0578063f2fde38b14610407575b6001600560000160166101000a81548160ff021916908315150217905550005b61014a6004803603602081101561013257600080fd5b81019080803515159060200190929190505050610458565b005b610154610716565b005b34801561016257600080fd5b5061016b610747565b005b34801561017957600080fd5b5061018261079c565b6040518082815260200191505060405180910390f35b3480156101a457600080fd5b506101ad6107a2565b005b3480156101bb57600080fd5b506101fe600480360360208110156101d257600080fd5b81019080803573ffffffffffffffffffffffffffffffffffffffff169060200190929190505050610851565b604051808215151515815260200191505060405180910390f35b34801561022457600080fd5b5061022d61086e565b604051808215151515815260200191505060405180910390f35b34801561025357600080fd5b5061025c610885565b005b34801561026a57600080fd5b50610273610890565b005b34801561028157600080fd5b506102c46004803603602081101561029857600080fd5b81019080803573ffffffffffffffffffffffffffffffffffffffff169060200190929190505050610962565b005b3480156102d257600080fd5b506102db610982565b005b3480156102e957600080fd5b506102f2610a32565b604051808273ffffffffffffffffffffffffffffffffffffffff1673ffffffffffffffffffffffffffffffffffffffff16815260200191505060405180910390f35b34801561034057600080fd5b50610349610a5b565b604051808215151515815260200191505060405180910390f35b34801561036f57600080fd5b50610378610ab2565b6040518082815260200191505060405180910390f35b34801561039a57600080fd5b506103a3610ab8565b604051808260ff1660ff16815260200191505060405180910390f35b3480156103cb57600080fd5b506103d4610aca565b604051808260ff1660ff16815260200191505060405180910390f35b3480156103fc57600080fd5b50610405610add565b005b34801561041357600080fd5b506104566004803603602081101561042a57600080fd5b81019080803573ffffffffffffffffffffffffffffffffffffffff169060200190929190505050610b32565b005b60018081111561046457fe5b600a60019054906101000a900460ff16600181111561047f57fe5b141515156104f5576040517f08c379a00000000000000000000000000000000000000000000000000000000081526004018080602001828103825260128152602001807f436f6e747261637420696e6163746976652e000000000000000000000000000081525060200191505060405180910390fd5b600260009054906101000a900460ff1615151561051157600080fd5b6000600181111561051e57fe5b600a60009054906101000a900460ff16600181111561053957fe5b14156105495761054833610b51565b5b6001600a60006101000a81548160ff0219169083600181111561056857fe5b02179055506000610577610b54565b9050610100604051908101604052803373ffffffffffffffffffffffffffffffffffffffff16815260200160001515815260200160001515815260200183151581526020018281526020014381526020016000815260200160001515815250600560008201518160000160006101000a81548173ffffffffffffffffffffffffffffffffffffffff021916908373ffffffffffffffffffffffffffffffffffffffff16021790555060208201518160000160146101000a81548160ff02191690831515021790555060408201518160000160156101000a81548160ff02191690831515021790555060608201518160000160166101000a81548160ff0219169083151502179055506080820151816001015560a0820151816002015560c0820151816003015560e08201518160040160006101000a81548160ff02191690831515021790555090505034811015610712573373ffffffffffffffffffffffffffffffffffffffff166108fc8234039081150290604051600060405180830381858888f19350505050158015610710573d6000803e3d6000fd5b505b5050565b61071e610a5b565b151561072957600080fd5b600260009054906101000a900460ff1615151561074557600080fd5b565b61074f610a5b565b151561075a57600080fd5b600260009054906101000a900460ff1615151561077657600080fd5b6001600a60016101000a81548160ff0219169083600181111561079557fe5b0217905550565b60035481565b6107ab33610851565b15156107b657600080fd5b600260009054906101000a900460ff1615156107d157600080fd5b6000600260006101000a81548160ff0219169083151502179055507f5db9ee0a495bf2e6ff9c91a7834c1ba4fdd244a5e8aa4e537bd38aeae4b073aa33604051808273ffffffffffffffffffffffffffffffffffffffff1673ffffffffffffffffffffffffffffffffffffffff16815260200191505060405180910390a1565b6000610867826001610bf090919063ffffffff16565b9050919050565b6000600260009054906101000a900460ff16905090565b61088e33610c84565b565b610898610a5b565b15156108a357600080fd5b600073ffffffffffffffffffffffffffffffffffffffff166000809054906101000a900473ffffffffffffffffffffffffffffffffffffffff1673ffffffffffffffffffffffffffffffffffffffff167f8be0079c531659141344cd1fd0a4f28419497f9722a3daafe3b4186f6b6457e060405160405180910390a360008060006101000a81548173ffffffffffffffffffffffffffffffffffffffff021916908373ffffffffffffffffffffffffffffffffffffffff160217905550565b61096b33610851565b151561097657600080fd5b61097f81610cde565b50565b61098b33610851565b151561099657600080fd5b600260009054906101000a900460ff161515156109b257600080fd5b6001600260006101000a81548160ff0219169083151502179055507f62e78cea01bee320cd4e420270b5ea74000d11b0c9f74754ebdbfc544b05a25833604051808273ffffffffffffffffffffffffffffffffffffffff1673ffffffffffffffffffffffffffffffffffffffff16815260200191505060405180910390a1565b60008060009054906101000a900473ffffffffffffffffffffffffffffffffffffffff16905090565b60008060009054906101000a900473ffffffffffffffffffffffffffffffffffffffff1673ffffffffffffffffffffffffffffffffffffffff163373ffffffffffffffffffffffffffffffffffffffff1614905090565b60045481565b6002809054906101000a900460ff1681565b600260019054906101000a900460ff1681565b610ae5610a5b565b1515610af057600080fd5b600260009054906101000a900460ff16151515610b0c57600080fd5b6000600a60016101000a81548160ff02191690836001811115610b2b57fe5b0217905550565b610b3a610a5b565b1515610b4557600080fd5b610b4e81610d38565b50565b50565b6000806004543410151515610bd1576040517f08c379a000000000000000000000000000000000000000000000000000000000815260040180806020018281038252600e8152602001807f42657420746f6f20736d616c6c2e00000000000000000000000000000000000081525060200191505060405180910390fd5b600354341115610be5576003549050610be9565b3490505b8091505090565b60008073ffffffffffffffffffffffffffffffffffffffff168273ffffffffffffffffffffffffffffffffffffffff1614151515610c2d57600080fd5b8260000160008373ffffffffffffffffffffffffffffffffffffffff1673ffffffffffffffffffffffffffffffffffffffff16815260200190815260200160002060009054906101000a900460ff16905092915050565b610c98816001610e3290919063ffffffff16565b8073ffffffffffffffffffffffffffffffffffffffff167fcd265ebaf09df2871cc7bd4133404a235ba12eff2041bb89d9c714a2621c7c7e60405160405180910390a250565b610cf2816001610ee190919063ffffffff16565b8073ffffffffffffffffffffffffffffffffffffffff167f6719d08c1888103bea251a4ed56406bd0c3e69723c8a1686e017e7bbe159b6f860405160405180910390a250565b600073ffffffffffffffffffffffffffffffffffffffff168173ffffffffffffffffffffffffffffffffffffffff1614151515610d7457600080fd5b8073ffffffffffffffffffffffffffffffffffffffff166000809054906101000a900473ffffffffffffffffffffffffffffffffffffffff1673ffffffffffffffffffffffffffffffffffffffff167f8be0079c531659141344cd1fd0a4f28419497f9722a3daafe3b4186f6b6457e060405160405180910390a3806000806101000a81548173ffffffffffffffffffffffffffffffffffffffff021916908373ffffffffffffffffffffffffffffffffffffffff16021790555050565b600073ffffffffffffffffffffffffffffffffffffffff168173ffffffffffffffffffffffffffffffffffffffff1614151515610e6e57600080fd5b610e788282610bf0565b1515610e8357600080fd5b60008260000160008373ffffffffffffffffffffffffffffffffffffffff1673ffffffffffffffffffffffffffffffffffffffff16815260200190815260200160002060006101000a81548160ff0219169083151502179055505050565b600073ffffffffffffffffffffffffffffffffffffffff168173ffffffffffffffffffffffffffffffffffffffff1614151515610f1d57600080fd5b610f278282610bf0565b151515610f3357600080fd5b60018260000160008373ffffffffffffffffffffffffffffffffffffffff1673ffffffffffffffffffffffffffffffffffffffff16815260200190815260200160002060006101000a81548160ff021916908315150217905550505056fea165627a7a723058206b51ec84603e11feb325921cdf2c6ad41f849ede0a59d9ce3991ebc4c4ad60f30029",
  "source": "pragma solidity ^0.5.0;\n\nimport \"openzeppelin-solidity/contracts/ownership/Ownable.sol\";\nimport \"openzeppelin-solidity/contracts/lifecycle/Pausable.sol\";\n\ncontract SimpleBet is Ownable, Pausable {\n\n    // Game and Global Variables\n    uint8 public blockDelay; // How many blocks to wait to resolve RNG and allow payout\n    uint8 public blockExpiration; // How many blocks until bet expires\n    uint256 public maxBet; // Minimum bet size\n    uint256 public minBet; // Maximum bet size\n\n    // Record Bets in Struct\n    struct Bet {\n        address player;\n        bool rngResolved;\n        bool win;\n        bool input; // Stores bettor input\n        uint256 wager;\n        uint256 blockNumber; //block of bet\n        uint256 blockResolved; //block of spin\n        bool betResult;\n    }\n    Bet private bet;\n    \n    //records current status of player\n    enum Status {waitingForBet, waitingForResolve}\n    Status private playerStatus;\n\n    // Constructor with contract deployment inital settings \n    constructor() public {    \n        blockDelay = 0;          // How many blocks to wait to resolve RNG and allow payout\n        blockExpiration = 100;    // How many blocks until bet expires\n        minBet = 10 finney;        // Minimum bet size (1 Ether = 1,000 Finney)\n        maxBet = 1000 finney;     // Maximum bet size (1 Ether = 1,000 Finney)\n\n    }\n\n    function addBankroll() public payable \n        onlyOwner\n        whenNotPaused {\n    }\n\n    // Enable and disable betting\n    enum States{active, inactive}\n    States private contract_state;\n    \n    function disableBetting_only_Owner() public\n        onlyOwner \n        whenNotPaused {\n        contract_state = States.inactive;\n    }\n\n    function enableBetting_only_Owner() public\n        onlyOwner\n        whenNotPaused {\n        contract_state = States.active;\n    }\n\n    modifier onlyActive() {\n        require (contract_state!=States.inactive, \"Contract inactive.\");\n        _;\n    }\n\n    // If player doesn't specify bet, make the default bet true (heads)\n    function () external payable // Fallback function\n        {\n        bet.input = true;\n    } \n\n    // Ensure bet size is in range\n    function checkBetValue() private returns(uint256) {\n        uint256 playerBetValue;\n        require (msg.value >= minBet, \"Bet too small.\");\n\n        if (msg.value > maxBet){\n            playerBetValue = maxBet;\n        }\n        else {\n            playerBetValue = msg.value;\n        }\n        return playerBetValue;\n    }\n\n    // Record the bet details\n    function placeBet(bool input_) public \n        payable\n        onlyActive\n        whenNotPaused {\n        if (playerStatus == Status.waitingForBet) {\n            resolveBet(msg.sender);\n        }\n        // Once this is done, we can record the new bet\n        playerStatus = Status.waitingForResolve;\n\n        // Ensure bet size is in range\n        uint256 betValue = checkBetValue();\n        // Bet(player address, rngRevolved, win, input, wager, blockNumber, blockResoved, betResult)\n        bet = Bet(msg.sender, false, false, input_, betValue, block.number, 0, false);\n\n        // Refund excess bet to user (do this at the very last step to prevent re-entrancy attack)\n        if (betValue < msg.value) {\n            msg.sender.transfer(msg.value - betValue);\n        }\n    }\n\n    function resolveBet(address playerSpun) private {\n\n    }\n\n\n\n\n\n\n}\n",
  "sourcePath": "/home/colin/localdev/consensys/final-project-colinmccrae/contracts/SimpleBet.sol",
  "compiler": {
    "name": "solc",
    "version": "0.5.0+commit.1d4f565a.Emscripten.clang"
  },
  "schemaVersion": "3.0.1",
  "updatedAt": "2019-01-24T11:29:51.865Z",
  "devdoc": {
    "methods": {
      "isOwner()": {
        "return": "true if `msg.sender` is the owner of the contract."
      },
      "owner()": {
        "return": "the address of the owner."
      },
      "pause()": {
        "details": "called by the owner to pause, triggers stopped state"
      },
      "paused()": {
        "return": "true if the contract is paused, false otherwise."
      },
      "renounceOwnership()": {
        "details": "Allows the current owner to relinquish control of the contract."
      },
      "transferOwnership(address)": {
        "details": "Allows the current owner to transfer control of the contract to a newOwner.",
        "params": {
          "newOwner": "The address to transfer ownership to."
        }
      },
      "unpause()": {
        "details": "called by the owner to unpause, returns to normal state"
      }
    }
  },
  "userdoc": {
    "methods": {
      "renounceOwnership()": {
        "notice": "Renouncing to ownership will leave the contract without an owner. It will not be possible to call the functions with the `onlyOwner` modifier anymore."
      }
    }
  }
}